{
  "_format": "hh-sol-artifact-1",
  "contractName": "Portal",
  "sourceName": "contracts/Portal.sol",
  "abi": [
    {
      "inputs": [
        {
          "internalType": "uint256",
          "name": "_endBlock",
          "type": "uint256"
        },
        {
          "internalType": "address[]",
          "name": "_rewardsToken",
          "type": "address[]"
        },
        {
          "internalType": "uint256[]",
          "name": "_minimumRewardRate",
          "type": "uint256[]"
        },
        {
          "internalType": "address",
          "name": "_stakingToken",
          "type": "address"
        },
        {
          "internalType": "uint256",
          "name": "_stakeLimit",
          "type": "uint256"
        },
        {
          "internalType": "uint256",
          "name": "_contractStakeLimit",
          "type": "uint256"
        },
        {
          "internalType": "uint256",
          "name": "_distributionLimit",
          "type": "uint256"
        }
      ],
      "stateMutability": "nonpayable",
      "type": "constructor"
    },
    {
      "anonymous": false,
      "inputs": [
        {
          "indexed": false,
          "internalType": "uint256[]",
          "name": "amount",
          "type": "uint256[]"
        },
        {
          "indexed": false,
          "internalType": "uint256",
          "name": "endDate",
          "type": "uint256"
        },
        {
          "indexed": false,
          "internalType": "address",
          "name": "recipient",
          "type": "address"
        },
        {
          "indexed": false,
          "internalType": "address",
          "name": "portal",
          "type": "address"
        }
      ],
      "name": "Deposited",
      "type": "event"
    },
    {
      "anonymous": false,
      "inputs": [
        {
          "indexed": false,
          "internalType": "address",
          "name": "recipient",
          "type": "address"
        },
        {
          "indexed": false,
          "internalType": "address",
          "name": "portal",
          "type": "address"
        }
      ],
      "name": "Harvested",
      "type": "event"
    },
    {
      "anonymous": false,
      "inputs": [
        {
          "indexed": false,
          "internalType": "address",
          "name": "staker",
          "type": "address"
        },
        {
          "indexed": false,
          "internalType": "address",
          "name": "recipient",
          "type": "address"
        },
        {
          "indexed": false,
          "internalType": "uint256",
          "name": "amount",
          "type": "uint256"
        },
        {
          "indexed": false,
          "internalType": "address",
          "name": "portal",
          "type": "address"
        }
      ],
      "name": "Staked",
      "type": "event"
    },
    {
      "anonymous": false,
      "inputs": [
        {
          "indexed": false,
          "internalType": "address",
          "name": "portal",
          "type": "address"
        }
      ],
      "name": "UnStaked",
      "type": "event"
    },
    {
      "anonymous": false,
      "inputs": [
        {
          "indexed": false,
          "internalType": "address",
          "name": "recipient",
          "type": "address"
        },
        {
          "indexed": false,
          "internalType": "uint256",
          "name": "amount",
          "type": "uint256"
        },
        {
          "indexed": false,
          "internalType": "address",
          "name": "portal",
          "type": "address"
        }
      ],
      "name": "Withdrawn",
      "type": "event"
    },
    {
      "inputs": [
        {
          "internalType": "uint256[]",
          "name": "rewards",
          "type": "uint256[]"
        },
        {
          "internalType": "uint256",
          "name": "newEndBlock",
          "type": "uint256"
        }
      ],
      "name": "addReward",
      "outputs": [],
      "stateMutability": "nonpayable",
      "type": "function"
    },
    {
      "inputs": [],
      "name": "contractStakeLimit",
      "outputs": [
        {
          "internalType": "uint256",
          "name": "",
          "type": "uint256"
        }
      ],
      "stateMutability": "view",
      "type": "function"
    },
    {
      "inputs": [
        {
          "internalType": "uint256",
          "name": "",
          "type": "uint256"
        }
      ],
      "name": "distributedReward",
      "outputs": [
        {
          "internalType": "uint256",
          "name": "",
          "type": "uint256"
        }
      ],
      "stateMutability": "view",
      "type": "function"
    },
    {
      "inputs": [],
      "name": "distributionLimit",
      "outputs": [
        {
          "internalType": "uint256",
          "name": "",
          "type": "uint256"
        }
      ],
      "stateMutability": "view",
      "type": "function"
    },
    {
      "inputs": [
        {
          "internalType": "address",
          "name": "account",
          "type": "address"
        },
        {
          "internalType": "uint256",
          "name": "tokenIndex",
          "type": "uint256"
        }
      ],
      "name": "earned",
      "outputs": [
        {
          "internalType": "uint256",
          "name": "",
          "type": "uint256"
        }
      ],
      "stateMutability": "view",
      "type": "function"
    },
    {
      "inputs": [],
      "name": "endBlock",
      "outputs": [
        {
          "internalType": "uint256",
          "name": "",
          "type": "uint256"
        }
      ],
      "stateMutability": "view",
      "type": "function"
    },
    {
      "inputs": [],
      "name": "endDate",
      "outputs": [
        {
          "internalType": "uint256",
          "name": "",
          "type": "uint256"
        }
      ],
      "stateMutability": "view",
      "type": "function"
    },
    {
      "inputs": [],
      "name": "exit",
      "outputs": [],
      "stateMutability": "nonpayable",
      "type": "function"
    },
    {
      "inputs": [
        {
          "internalType": "address",
          "name": "provider",
          "type": "address"
        }
      ],
      "name": "getProviderRewardsRatio",
      "outputs": [
        {
          "internalType": "uint256[]",
          "name": "",
          "type": "uint256[]"
        }
      ],
      "stateMutability": "view",
      "type": "function"
    },
    {
      "inputs": [],
      "name": "getRewardRate",
      "outputs": [
        {
          "internalType": "uint256[]",
          "name": "",
          "type": "uint256[]"
        }
      ],
      "stateMutability": "view",
      "type": "function"
    },
    {
      "inputs": [],
      "name": "getRewardTokens",
      "outputs": [
        {
          "internalType": "contract IERC20Metadata[]",
          "name": "",
          "type": "address[]"
        }
      ],
      "stateMutability": "view",
      "type": "function"
    },
    {
      "inputs": [],
      "name": "getStakingToken",
      "outputs": [
        {
          "internalType": "contract IERC20Metadata",
          "name": "",
          "type": "address"
        }
      ],
      "stateMutability": "view",
      "type": "function"
    },
    {
      "inputs": [
        {
          "internalType": "uint256",
          "name": "tokenIndex",
          "type": "uint256"
        }
      ],
      "name": "getTokenMultiplier",
      "outputs": [
        {
          "internalType": "uint256",
          "name": "",
          "type": "uint256"
        }
      ],
      "stateMutability": "view",
      "type": "function"
    },
    {
      "inputs": [],
      "name": "getTotalStaked",
      "outputs": [
        {
          "internalType": "uint256",
          "name": "",
          "type": "uint256"
        }
      ],
      "stateMutability": "view",
      "type": "function"
    },
    {
      "inputs": [
        {
          "internalType": "address",
          "name": "user",
          "type": "address"
        }
      ],
      "name": "getUserData",
      "outputs": [
        {
          "internalType": "uint256",
          "name": "",
          "type": "uint256"
        },
        {
          "internalType": "uint256[]",
          "name": "",
          "type": "uint256[]"
        },
        {
          "internalType": "uint256[]",
          "name": "",
          "type": "uint256[]"
        }
      ],
      "stateMutability": "view",
      "type": "function"
    },
    {
      "inputs": [
        {
          "internalType": "address",
          "name": "recipient",
          "type": "address"
        }
      ],
      "name": "harvest",
      "outputs": [],
      "stateMutability": "nonpayable",
      "type": "function"
    },
    {
      "inputs": [
        {
          "internalType": "uint256[]",
          "name": "tokenIndices",
          "type": "uint256[]"
        },
        {
          "internalType": "address",
          "name": "recipient",
          "type": "address"
        }
      ],
      "name": "harvest",
      "outputs": [],
      "stateMutability": "nonpayable",
      "type": "function"
    },
    {
      "inputs": [
        {
          "internalType": "uint256",
          "name": "tokenIndex",
          "type": "uint256"
        }
      ],
      "name": "harvestForDuration",
      "outputs": [
        {
          "internalType": "uint256",
          "name": "",
          "type": "uint256"
        }
      ],
      "stateMutability": "view",
      "type": "function"
    },
    {
      "inputs": [],
      "name": "lastBlockRewardIsApplicable",
      "outputs": [
        {
          "internalType": "uint256",
          "name": "",
          "type": "uint256"
        }
      ],
      "stateMutability": "view",
      "type": "function"
    },
    {
      "inputs": [],
      "name": "lastBlockUpdate",
      "outputs": [
        {
          "internalType": "uint256",
          "name": "",
          "type": "uint256"
        }
      ],
      "stateMutability": "view",
      "type": "function"
    },
    {
      "inputs": [
        {
          "internalType": "uint256",
          "name": "_amount",
          "type": "uint256"
        },
        {
          "internalType": "address",
          "name": "_portal",
          "type": "address"
        }
      ],
      "name": "migrate",
      "outputs": [],
      "stateMutability": "nonpayable",
      "type": "function"
    },
    {
      "inputs": [
        {
          "internalType": "uint256",
          "name": "",
          "type": "uint256"
        }
      ],
      "name": "minimumRewardRate",
      "outputs": [
        {
          "internalType": "uint256",
          "name": "",
          "type": "uint256"
        }
      ],
      "stateMutability": "view",
      "type": "function"
    },
    {
      "inputs": [
        {
          "internalType": "address",
          "name": "",
          "type": "address"
        },
        {
          "internalType": "uint256",
          "name": "",
          "type": "uint256"
        }
      ],
      "name": "providerRewardRatios",
      "outputs": [
        {
          "internalType": "uint256",
          "name": "",
          "type": "uint256"
        }
      ],
      "stateMutability": "view",
      "type": "function"
    },
    {
      "inputs": [],
      "name": "removeReward",
      "outputs": [],
      "stateMutability": "nonpayable",
      "type": "function"
    },
    {
      "inputs": [
        {
          "internalType": "uint256",
          "name": "",
          "type": "uint256"
        }
      ],
      "name": "rewardPerTokenSnapshot",
      "outputs": [
        {
          "internalType": "uint256",
          "name": "",
          "type": "uint256"
        }
      ],
      "stateMutability": "view",
      "type": "function"
    },
    {
      "inputs": [
        {
          "internalType": "uint256",
          "name": "tokenIndex",
          "type": "uint256"
        }
      ],
      "name": "rewardPerTokenStaked",
      "outputs": [
        {
          "internalType": "uint256",
          "name": "",
          "type": "uint256"
        }
      ],
      "stateMutability": "view",
      "type": "function"
    },
    {
      "inputs": [
        {
          "internalType": "uint256",
          "name": "",
          "type": "uint256"
        }
      ],
      "name": "rewardRate",
      "outputs": [
        {
          "internalType": "uint256",
          "name": "",
          "type": "uint256"
        }
      ],
      "stateMutability": "view",
      "type": "function"
    },
    {
      "inputs": [],
      "name": "rewardsDuration",
      "outputs": [
        {
          "internalType": "uint256",
          "name": "",
          "type": "uint256"
        }
      ],
      "stateMutability": "view",
      "type": "function"
    },
    {
      "inputs": [
        {
          "internalType": "uint256",
          "name": "amount",
          "type": "uint256"
        },
        {
          "internalType": "address",
          "name": "recipient",
          "type": "address"
        }
      ],
      "name": "stake",
      "outputs": [],
      "stateMutability": "nonpayable",
      "type": "function"
    },
    {
      "inputs": [],
      "name": "stakingToken",
      "outputs": [
        {
          "internalType": "contract IERC20Metadata",
          "name": "",
          "type": "address"
        }
      ],
      "stateMutability": "view",
      "type": "function"
    },
    {
      "inputs": [
        {
          "internalType": "uint256",
          "name": "tokenIndex",
          "type": "uint256"
        }
      ],
      "name": "totalEarned",
      "outputs": [
        {
          "internalType": "uint256",
          "name": "",
          "type": "uint256"
        }
      ],
      "stateMutability": "view",
      "type": "function"
    },
    {
      "inputs": [],
      "name": "totalReward",
      "outputs": [
        {
          "internalType": "uint256[]",
          "name": "",
          "type": "uint256[]"
        }
      ],
      "stateMutability": "view",
      "type": "function"
    },
    {
      "inputs": [
        {
          "internalType": "uint256",
          "name": "",
          "type": "uint256"
        }
      ],
      "name": "totalRewardRatios",
      "outputs": [
        {
          "internalType": "uint256",
          "name": "",
          "type": "uint256"
        }
      ],
      "stateMutability": "view",
      "type": "function"
    },
    {
      "inputs": [
        {
          "internalType": "uint256",
          "name": "",
          "type": "uint256"
        }
      ],
      "name": "totalRewards",
      "outputs": [
        {
          "internalType": "uint256",
          "name": "",
          "type": "uint256"
        }
      ],
      "stateMutability": "view",
      "type": "function"
    },
    {
      "inputs": [],
      "name": "totalStaked",
      "outputs": [
        {
          "internalType": "uint256",
          "name": "",
          "type": "uint256"
        }
      ],
      "stateMutability": "view",
      "type": "function"
    },
    {
      "inputs": [],
      "name": "userStakeLimit",
      "outputs": [
        {
          "internalType": "uint256",
          "name": "",
          "type": "uint256"
        }
      ],
      "stateMutability": "view",
      "type": "function"
    },
    {
      "inputs": [
        {
          "internalType": "address",
          "name": "",
          "type": "address"
        }
      ],
      "name": "users",
      "outputs": [
        {
          "internalType": "uint256",
          "name": "balance",
          "type": "uint256"
        }
      ],
      "stateMutability": "view",
      "type": "function"
    },
    {
      "inputs": [
        {
          "internalType": "uint256",
          "name": "amount",
          "type": "uint256"
        }
      ],
      "name": "withdraw",
      "outputs": [],
      "stateMutability": "nonpayable",
      "type": "function"
    }
  ],
  "bytecode": "0x60806040523480156200001157600080fd5b50604051620030db380380620030db833981016040819052620000349162000433565b6001600055438711620000a35760405162461bcd60e51b815260206004820152602c60248201527f506f7274616c3a2054686520656e6420626c6f636b206d75737420626520696e60448201526b103a343290333aba3ab9329760a11b60648201526084015b60405180910390fd5b82620001065760405162461bcd60e51b815260206004820152602b60248201527f506f7274616c3a205374616b65206c696d6974206e6565647320746f2062652060448201526a06d6f7265207468616e20360ac1b60648201526084016200009a565b816200017b5760405162461bcd60e51b815260206004820152603460248201527f506f7274616c3a20436f6e7472616374205374616b65206c696d6974206e656560448201527f647320746f206265206d6f7265207468616e203000000000000000000000000060648201526084016200009a565b6001879055601180546001600160a01b0319166001600160a01b0386161790558451620001b090600a90602088019062000338565b50600b839055600c829055600d81905560005b86518110156200032a576010878281518110620001f057634e487b7160e01b600052603260045260246000fd5b60209081029190910181015182546001808201855560009485529284200180546001600160a01b0319166001600160a01b03909216919091179055600580548083019091557f036b6384b5eca791c62761152d0c79bb0604c104a5fb6f4eb0703f3154bb3db001829055600680548083019091557ff652222313e28459528d920b65115c16c04f3efc82aaedc97be59f3f377c0d3f01829055600780548083019091557fa66cc928b5edb82af9bd49922954155ab7b0942694bea4ce44661d9a8736c68801829055600880548083019091557ff3f7a9fe364faab93b216da50a3214154f22a0a2b415b23a84c8169e8b636ee30182905560098054918201815582527f6e1540171b6c0c960b71a7020d9f60077f6af931a8bbf590da0223dacf75c7af015580620003218162000598565b915050620001c3565b5050505050505050620005d6565b82805482825590600052602060002090810192821562000376579160200282015b828111156200037657825182559160200191906001019062000359565b506200038492915062000388565b5090565b5b8082111562000384576000815560010162000389565b80516001600160a01b0381168114620003b757600080fd5b919050565b600082601f830112620003cd578081fd5b81516020620003e6620003e08362000572565b6200053f565b80838252828201915082860187848660051b890101111562000406578586fd5b855b85811015620004265781518452928401929084019060010162000408565b5090979650505050505050565b600080600080600080600060e0888a0312156200044e578283fd5b87516020808a0151919850906001600160401b03808211156200046f578586fd5b818b0191508b601f83011262000483578586fd5b815162000494620003e08262000572565b8082825285820191508585018f878560051b8801011115620004b457898afd5b8995505b83861015620004e157620004cc816200039f565b835260019590950194918601918601620004b8565b5060408e0151909b509450505080831115620004fb578586fd5b50506200050b8a828b01620003bc565b9550506200051c606089016200039f565b93506080880151925060a0880151915060c0880151905092959891949750929550565b604051601f8201601f191681016001600160401b03811182821017156200056a576200056a620005c0565b604052919050565b60006001600160401b038211156200058e576200058e620005c0565b5060051b60200190565b6000600019821415620005b957634e487b7160e01b81526011600452602481fd5b5060010190565b634e487b7160e01b600052604160045260246000fd5b612af580620005e66000396000f3fe608060405234801561001057600080fd5b50600436106102925760003560e01c80637e1a378611610160578063b77db8ac116100d8578063df3851e31161008c578063e9fad8ee11610071578063e9fad8ee146104ef578063fce55b4e146104f7578063ffc9896b1461050a57600080fd5b8063df3851e3146104dd578063e20bdc67146104e657600080fd5b8063c4f59f9b116100bd578063c4f59f9b146104a2578063cea01962146104b7578063dbe991a9146104ca57600080fd5b8063b77db8ac14610487578063c24a0f8b1461049a57600080fd5b8063936d958d1161012f5780639f9106d1116101145780639f9106d114610443578063a87430ba14610454578063a9fc0f731461047457600080fd5b8063936d958d1461041d5780639d14b1ba1461043057600080fd5b80637e1a3786146103f15780637eecf18d146103f9578063817b1cd21461040157806388fcc61e1461040a57600080fd5b806335bf66ed1161020e57806361712a6d116101c257806372f702f3116101a757806372f702f31461039e578063750142e6146103c95780637acb7757146103de57600080fd5b806361712a6d146103785780636621599e1461038b57600080fd5b80633e491d47116101f35780633e491d471461033f578063405b84fa146103525780635fcc849b1461036557600080fd5b806335bf66ed14610323578063386a95251461033657600080fd5b8063083c6323116102655780630e5c011e1161024a5780630e5c011e146102e85780632e1a7d4d146102fd57806332f266941461031057600080fd5b8063083c6323146102d75780630917e776146102e057600080fd5b806301d302ee14610297578063021fc457146102b257806303d1dae0146102c5578063082ed05c146102ce575b600080fd5b61029f61052c565b6040519081526020015b60405180910390f35b61029f6102c0366004612692565b610543565b61029f600c5481565b61029f60035481565b61029f60015481565b60045461029f565b6102fb6102f6366004612678565b610574565b005b6102fb61030b36600461276a565b61070e565b61029f61031e36600461276a565b6108c3565b61029f61033136600461276a565b6108e4565b61029f60025481565b61029f61034d366004612692565b6108f4565b6102fb610360366004612782565b610a72565b61029f61037336600461276a565b610cb9565b61029f61038636600461276a565b610d75565b61029f61039936600461276a565b610e58565b6011546103b1906001600160a01b031681565b6040516001600160a01b0390911681526020016102a9565b6103d1610e68565b6040516102a99190612868565b6102fb6103ec366004612782565b610ec0565b6103d161115c565b6102fb6111b2565b61029f60045481565b61029f61041836600461276a565b6114b2565b6103d161042b366004612678565b6114c2565b61029f61043e36600461276a565b61152e565b6011546001600160a01b03166103b1565b61029f610462366004612678565b600e6020526000908152604090205481565b61029f61048236600461276a565b611569565b6102fb6104953660046126bb565b6115ef565b60015461029f565b6104aa611788565b6040516102a9919061281b565b61029f6104c536600461276a565b6117e9565b61029f6104d836600461276a565b6117f9565b61029f600d5481565b61029f600b5481565b6102fb611809565b6102fb610505366004612707565b611860565b61051d610518366004612678565b611ec1565b6040516102a9939291906128e7565b6000600154431161053c57504390565b5060015490565b600f602052816000526040600020818154811061055f57600080fd5b90600052602060002001600091509150505481565b600260005414156105cc5760405162461bcd60e51b815260206004820152601f60248201527f5265656e7472616e637947756172643a207265656e7472616e742063616c6c0060448201526064015b60405180910390fd5b600260009081556001600160a01b0382168152600e602052604090206105f181611fb7565b60105460005b818110156106c257600083600201828154811061062457634e487b7160e01b600052603260045260246000fd5b9060005260206000200154905060008111156106af57600084600201838154811061065f57634e487b7160e01b600052603260045260246000fd5b90600052602060002001819055506106af85826010858154811061069357634e487b7160e01b600052603260045260246000fd5b6000918252602090912001546001600160a01b0316919061226e565b50806106ba81612aa1565b9150506105f7565b50604080516001600160a01b03851681523060208201527fb0fab2194c544d09f2a81bfec607b4a5532e7ef21412deca0e29aa5a39b1d541910160405180910390a15050600160005550565b600260005414156107615760405162461bcd60e51b815260206004820152601f60248201527f5265656e7472616e637947756172643a207265656e7472616e742063616c6c0060448201526064016105c3565b60026000908155338152600e6020526040902061077d81611fb7565b600082116107cd5760405162461bcd60e51b815260206004820152601960248201527f506f7274616c3a2063616e6e6f7420776974686472617720300000000000000060448201526064016105c3565b80548211156108445760405162461bcd60e51b815260206004820152602960248201527f506f7274616c3a20776974686472617720616d6f756e7420657863656564732060448201527f617661696c61626c65000000000000000000000000000000000000000000000060648201526084016105c3565b816004546108529190612a5e565b6004558054610862908390612a5e565b815560115461087b906001600160a01b0316338461226e565b6040805133815260208101849052308183015290517fcbcdbdf10631a43cc99c80acace8232649421c3f4f73919f16013d47c83a687a9181900360600190a150506001600055565b600681815481106108d357600080fd5b600091825260209091200154905081565b600781815481106108d357600080fd5b6001600160a01b0382166000908152600e6020908152604080832081516060810183528154815260018201805484518187028101870190955280855286959294858401939092919083018282801561096b57602002820191906000526020600020905b815481526020019060010190808311610957575b50505050508152602001600282018054806020026020016040519081016040528092919081815260200182805480156109c357602002820191906000526020600020905b8154815260200190600101908083116109af575b505050505081525050905060006109d984610cb9565b90508082602001518581518110610a0057634e487b7160e01b600052603260045260246000fd5b6020026020010151610a1186610d75565b610a1b9190612a5e565b8351610a279190612a3f565b610a319190612934565b82604001518581518110610a5557634e487b7160e01b600052603260045260246000fd5b6020026020010151610a67919061291c565b925050505b92915050565b60026000541415610ac55760405162461bcd60e51b815260206004820152601f60248201527f5265656e7472616e637947756172643a207265656e7472616e742063616c6c0060448201526064016105c3565b60026000908155338152600e60205260409020610ae181611fb7565b60008311610b315760405162461bcd60e51b815260206004820152601860248201527f506f7274616c3a2063616e6e6f74206d6967726174652030000000000000000060448201526064016105c3565b8054831115610ba85760405162461bcd60e51b815260206004820152602860248201527f506f7274616c3a206d69677261746520616d6f756e742065786365656473206160448201527f7661696c61626c6500000000000000000000000000000000000000000000000060648201526084016105c3565b82600454610bb69190612a5e565b6004558054610bc6908490612a5e565b815560115460405163095ea7b360e01b81526001600160a01b038481166004830152602482018690529091169063095ea7b390604401602060405180830381600087803b158015610c1657600080fd5b505af1158015610c2a573d6000803e3d6000fd5b505050506040513d601f19601f82011682018060405250810190610c4e919061274a565b50604051637acb775760e01b8152600481018490523360248201526001600160a01b03831690637acb775790604401600060405180830381600087803b158015610c9757600080fd5b505af1158015610cab573d6000803e3d6000fd5b505060016000555050505050565b60008060108381548110610cdd57634e487b7160e01b600052603260045260246000fd5b600091825260209182902001546040805163313ce56760e01b815290516001600160a01b039092169263313ce56792600480840193829003018186803b158015610d2657600080fd5b505afa158015610d3a573d6000803e3d6000fd5b505050506040513d601f19601f82011682018060405250810190610d5e91906127a4565b60ff169050610d6e81600a612997565b9392505050565b600080610d8183610cb9565b9050600d5460045411610dbf5760078381548110610daf57634e487b7160e01b600052603260045260246000fd5b9060005260206000200154610d6e565b6004548160058581548110610de457634e487b7160e01b600052603260045260246000fd5b9060005260206000200154600354610dfa61052c565b610e049190612a5e565b610e0e9190612a3f565b610e189190612a3f565b610e229190612934565b60078481548110610e4357634e487b7160e01b600052603260045260246000fd5b9060005260206000200154610d6e919061291c565b600881815481106108d357600080fd5b60606006805480602002602001604051908101604052809291908181526020018280548015610eb657602002820191906000526020600020905b815481526020019060010190808311610ea2575b5050505050905090565b60026000541415610f135760405162461bcd60e51b815260206004820152601f60248201527f5265656e7472616e637947756172643a207265656e7472616e742063616c6c0060448201526064016105c3565b600260008181556001600160a01b0383168152600e60205260409020601054918101549091905b81811015610f82576002830180546001818101835560009283526020808420909201839055808601805491820181558352908220015580610f7a81612aa1565b915050610f3a565b50610f8c82611fb7565b60008411610fdc5760405162461bcd60e51b815260206004820152601660248201527f506f7274616c3a2063616e6e6f74207374616b6520300000000000000000000060448201526064016105c3565b600b548254610fec90869061291c565b11156110445760405162461bcd60e51b815260206004820152602160248201527f506f7274616c3a2075736572207374616b65206c696d697420657863656564656044820152601960fa1b60648201526084016105c3565b600c5484600454611055919061291c565b11156110c95760405162461bcd60e51b815260206004820152602560248201527f506f7274616c3a20636f6e7472616374207374616b65206c696d69742065786360448201527f656564656400000000000000000000000000000000000000000000000000000060648201526084016105c3565b836004546110d7919061291c565b60045581546110e790859061291c565b8255601154611101906001600160a01b0316333087612303565b604080513381526001600160a01b03851660208201529081018590523060608201527f751f7c1e1facd3028e03b5a9e2e34e63fb2f229f99b85eec19864b950ac671d0906080015b60405180910390a1505060016000555050565b60606005805480602002602001604051908101604052809291908181526020018280548015610eb65760200282019190600052602060002090815481526020019060010190808311610ea2575050505050905090565b600260005414156112055760405162461bcd60e51b815260206004820152601f60248201527f5265656e7472616e637947756172643a207265656e7472616e742063616c6c0060448201526064016105c3565b60026000908155338152600e60209081526040808320600f90925290912061122c82611fb7565b4360015461123a9190612a5e565b60025560105460005b818110156114a357600061125682611569565b6006838154811061127757634e487b7160e01b600052603260045260246000fd5b906000526020600020015461128c9190612a5e565b90506000600983815481106112b157634e487b7160e01b600052603260045260246000fd5b90600052602060002001548584815481106112dc57634e487b7160e01b600052603260045260246000fd5b9060005260206000200154836112f29190612a3f565b6112fc9190612934565b905084838154811061131e57634e487b7160e01b600052603260045260246000fd5b90600052602060002001546009848154811061134a57634e487b7160e01b600052603260045260246000fd5b906000526020600020015461135f9190612a5e565b6009848154811061138057634e487b7160e01b600052603260045260246000fd5b906000526020600020018190555060008584815481106113b057634e487b7160e01b600052603260045260246000fd5b906000526020600020018190555080600684815481106113e057634e487b7160e01b600052603260045260246000fd5b90600052602060002001546113f59190612a5e565b6006848154811061141657634e487b7160e01b600052603260045260246000fd5b60009182526020909120015560025461142f8284612a5e565b6114399190612934565b6005848154811061145a57634e487b7160e01b600052603260045260246000fd5b906000526020600020018190555061148e33826010868154811061069357634e487b7160e01b600052603260045260246000fd5b5050808061149b90612aa1565b915050611243565b50504360035550506001600055565b600981815481106108d357600080fd5b6001600160a01b0381166000908152600f602090815260409182902080548351818402810184019094528084526060939283018282801561152257602002820191906000526020600020905b81548152602001906001019080831161150e575b50505050509050919050565b60006002546005838154811061155457634e487b7160e01b600052603260045260246000fd5b9060005260206000200154610a6c9190612a3f565b60008061157583610cb9565b9050806007848154811061159957634e487b7160e01b600052603260045260246000fd5b90600052602060002001546115ad85610d75565b6115b79190612a5e565b6004546115c49190612a3f565b6115ce9190612934565b60088481548110610e4357634e487b7160e01b600052603260045260246000fd5b600260005414156116425760405162461bcd60e51b815260206004820152601f60248201527f5265656e7472616e637947756172643a207265656e7472616e742063616c6c0060448201526064016105c3565b600260009081556001600160a01b0382168152600e6020526040902061166781611fb7565b825160005b8181101561174957600085828151811061169657634e487b7160e01b600052603260045260246000fd5b6020026020010151905060008460020182815481106116c557634e487b7160e01b600052603260045260246000fd5b90600052602060002001549050600081111561173457600085600201838154811061170057634e487b7160e01b600052603260045260246000fd5b906000526020600020018190555061173486826010858154811061069357634e487b7160e01b600052603260045260246000fd5b5050808061174190612aa1565b91505061166c565b50604080516001600160a01b03851681523060208201527fb0fab2194c544d09f2a81bfec607b4a5532e7ef21412deca0e29aa5a39b1d5419101611149565b60606010805480602002602001604051908101604052809291908181526020018280548015610eb657602002820191906000526020600020905b81546001600160a01b031681526001909101906020018083116117c2575050505050905090565b600581815481106108d357600080fd5b600a81815481106108d357600080fd5b336000908152600e60205260409020546118229061070e565b61182b33610574565b6040513081527f6834bcb181c65df18ce2da14523ae95d5db81f9a666b2334d1b58e8caa952cfb9060200160405180910390a1565b600260005414156118b35760405162461bcd60e51b815260206004820152601f60248201527f5265656e7472616e637947756172643a207265656e7472616e742063616c6c0060448201526064016105c3565b600260005560015481101561190a5760405162461bcd60e51b815260206004820152601960248201527f506f7274616c3a20696e76616c696420656e6420626c6f636b0000000000000060448201526064016105c3565b6010548251811461195d5760405162461bcd60e51b815260206004820152601f60248201527f506f7274616c3a2072657761726473206c656e677468206d69736d617463680060448201526064016105c3565b336000908152600e6020526040902060028101545b828110156119ba5760028201805460018181018355600092835260208084209092018390558085018054918201815583529082200155806119b281612aa1565b915050611972565b50336000908152600f6020526040902080545b838110156119fc57815460018101835560008381526020812090910155806119f481612aa1565b9150506119cd565b50611a0682611fb7565b611a104385612a5e565b60025560005b83811015611e6d57600080611a2a83610cb9565b9050600060068481548110611a4f57634e487b7160e01b600052603260045260246000fd5b90600052602060002001541115611b1357611a6983611569565b60068481548110611a8a57634e487b7160e01b600052603260045260246000fd5b9060005260206000200154611a9f9190612a5e565b915060025482898581518110611ac557634e487b7160e01b600052603260045260246000fd5b6020026020010151611ad7919061291c565b611ae19190612934565b60058481548110611b0257634e487b7160e01b600052603260045260246000fd5b600091825260209091200155611b76565b600254888481518110611b3657634e487b7160e01b600052603260045260246000fd5b6020026020010151611b489190612934565b60058481548110611b6957634e487b7160e01b600052603260045260246000fd5b6000918252602090912001555b60058381548110611b9757634e487b7160e01b600052603260045260246000fd5b9060005260206000200154600a8481548110611bc357634e487b7160e01b600052603260045260246000fd5b90600052602060002001541115611c1c5760405162461bcd60e51b815260206004820152601b60248201527f506f7274616c3a20696e76616c6964207265776172642072617465000000000060448201526064016105c3565b60008215611c675782828a8681518110611c4657634e487b7160e01b600052603260045260246000fd5b6020026020010151611c589190612a3f565b611c629190612934565b611c69565b815b905080858581548110611c8c57634e487b7160e01b600052603260045260246000fd5b9060005260206000200154611ca1919061291c565b858581548110611cc157634e487b7160e01b600052603260045260246000fd5b9060005260206000200181905550848481548110611cef57634e487b7160e01b600052603260045260246000fd5b906000526020600020015460098581548110611d1b57634e487b7160e01b600052603260045260246000fd5b9060005260206000200154611d30919061291c565b60098581548110611d5157634e487b7160e01b600052603260045260246000fd5b9060005260206000200181905550611dca33308b8781518110611d8457634e487b7160e01b600052603260045260246000fd5b602002602001015160108881548110611dad57634e487b7160e01b600052603260045260246000fd5b6000918252602090912001546001600160a01b0316929190612303565b888481518110611dea57634e487b7160e01b600052603260045260246000fd5b602002602001015160068581548110611e1357634e487b7160e01b600052603260045260246000fd5b9060005260206000200154611e28919061291c565b60068581548110611e4957634e487b7160e01b600052603260045260246000fd5b90600052602060002001819055505050508080611e6590612aa1565b915050611a16565b504360035560018490556040517f4ad4524536b68d5e19c1402bf841dbb5152395a237a2ecd46b1bec681f320d5090611ead90879087903390309061287b565b60405180910390a150506001600055505050565b6001600160a01b0381166000908152600e602090815260408083208151606081810184528254825260018301805485518188028101880190965280865291958695889593858301939192830182828015611f3a57602002820191906000526020600020905b815481526020019060010190808311611f26575b5050505050815260200160028201805480602002602001604051908101604052809291908181526020018280548015611f9257602002820191906000526020600020905b815481526020019060010190808311611f7e575b5050509190925250508151602083015160409093015190989297509550909350505050565b6000611fc161052c565b60105490915060005b8181101561226657600060078281548110611ff557634e487b7160e01b600052603260045260246000fd5b90600052602060002001549050600061200d83610cb9565b9050600d54600454111561208457600454816005858154811061204057634e487b7160e01b600052603260045260246000fd5b9060005260206000200154600354886120599190612a5e565b6120639190612a3f565b61206d9190612a3f565b6120779190612934565b612081908361291c565b91505b80600784815481106120a657634e487b7160e01b600052603260045260246000fd5b9060005260206000200154836120bc9190612a5e565b6004546120c99190612a3f565b6120d39190612934565b600884815481106120f457634e487b7160e01b600052603260045260246000fd5b9060005260206000200154612109919061291c565b6008848154811061212a57634e487b7160e01b600052603260045260246000fd5b9060005260206000200181905550816007848154811061215a57634e487b7160e01b600052603260045260246000fd5b90600052602060002001819055508086600101848154811061218c57634e487b7160e01b600052603260045260246000fd5b9060005260206000200154836121a29190612a5e565b87546121ae9190612a3f565b6121b89190612934565b8660020184815481106121db57634e487b7160e01b600052603260045260246000fd5b90600052602060002001546121f0919061291c565b86600201848154811061221357634e487b7160e01b600052603260045260246000fd5b90600052602060002001819055508186600101848154811061224557634e487b7160e01b600052603260045260246000fd5b6000918252602090912001555081905061225e81612aa1565b915050611fca565b505060035550565b6040516001600160a01b0383166024820152604481018290526122fe90849063a9059cbb60e01b906064015b60408051601f198184030181529190526020810180517bffffffffffffffffffffffffffffffffffffffffffffffffffffffff167fffffffff0000000000000000000000000000000000000000000000000000000090931692909217909152612341565b505050565b6040516001600160a01b038085166024830152831660448201526064810182905261233b9085906323b872dd60e01b9060840161229a565b50505050565b6000612396826040518060400160405280602081526020017f5361666545524332303a206c6f772d6c6576656c2063616c6c206661696c6564815250856001600160a01b03166124269092919063ffffffff16565b8051909150156122fe57808060200190518101906123b4919061274a565b6122fe5760405162461bcd60e51b815260206004820152602a60248201527f5361666545524332303a204552433230206f7065726174696f6e20646964206e60448201527f6f7420737563636565640000000000000000000000000000000000000000000060648201526084016105c3565b6060612435848460008561243d565b949350505050565b6060824710156124b55760405162461bcd60e51b815260206004820152602660248201527f416464726573733a20696e73756666696369656e742062616c616e636520666f60448201527f722063616c6c000000000000000000000000000000000000000000000000000060648201526084016105c3565b6001600160a01b0385163b61250c5760405162461bcd60e51b815260206004820152601d60248201527f416464726573733a2063616c6c20746f206e6f6e2d636f6e747261637400000060448201526064016105c3565b600080866001600160a01b0316858760405161252891906127ff565b60006040518083038185875af1925050503d8060008114612565576040519150601f19603f3d011682016040523d82523d6000602084013e61256a565b606091505b509150915061257a828286612585565b979650505050505050565b60608315612594575081610d6e565b8251156125a45782518084602001fd5b8160405162461bcd60e51b81526004016105c391906128b4565b80356001600160a01b03811681146125d557600080fd5b919050565b600082601f8301126125ea578081fd5b8135602067ffffffffffffffff8083111561260757612607612ad2565b8260051b604051601f19603f8301168101818110848211171561262c5761262c612ad2565b6040528481528381019250868401828801850189101561264a578687fd5b8692505b8583101561266c57803584529284019260019290920191840161264e565b50979650505050505050565b600060208284031215612689578081fd5b610d6e826125be565b600080604083850312156126a4578081fd5b6126ad836125be565b946020939093013593505050565b600080604083850312156126cd578182fd5b823567ffffffffffffffff8111156126e3578283fd5b6126ef858286016125da565b9250506126fe602084016125be565b90509250929050565b60008060408385031215612719578182fd5b823567ffffffffffffffff81111561272f578283fd5b61273b858286016125da565b95602094909401359450505050565b60006020828403121561275b578081fd5b81518015158114610d6e578182fd5b60006020828403121561277b578081fd5b5035919050565b60008060408385031215612794578182fd5b823591506126fe602084016125be565b6000602082840312156127b5578081fd5b815160ff81168114610d6e578182fd5b6000815180845260208085019450808401835b838110156127f4578151875295820195908201906001016127d8565b509495945050505050565b60008251612811818460208701612a75565b9190910192915050565b6020808252825182820181905260009190848201906040850190845b8181101561285c5783516001600160a01b031683529284019291840191600101612837565b50909695505050505050565b602081526000610d6e60208301846127c5565b60808152600061288e60808301876127c5565b6020830195909552506001600160a01b0392831660408201529116606090910152919050565b60208152600082518060208401526128d3816040850160208701612a75565b601f01601f19169190910160400192915050565b83815260606020820152600061290060608301856127c5565b828103604084015261291281856127c5565b9695505050505050565b6000821982111561292f5761292f612abc565b500190565b60008261294f57634e487b7160e01b81526012600452602481fd5b500490565b600181815b8085111561298f57816000190482111561297557612975612abc565b8085161561298257918102915b93841c9390800290612959565b509250929050565b6000610d6e83836000826129ad57506001610a6c565b816129ba57506000610a6c565b81600181146129d057600281146129da576129f6565b6001915050610a6c565b60ff8411156129eb576129eb612abc565b50506001821b610a6c565b5060208310610133831016604e8410600b8410161715612a19575081810a610a6c565b612a238383612954565b8060001904821115612a3757612a37612abc565b029392505050565b6000816000190483118215151615612a5957612a59612abc565b500290565b600082821015612a7057612a70612abc565b500390565b60005b83811015612a90578181015183820152602001612a78565b8381111561233b5750506000910152565b6000600019821415612ab557612ab5612abc565b5060010190565b634e487b7160e01b600052601160045260246000fd5b634e487b7160e01b600052604160045260246000fdfea164736f6c6343000804000a",
  "linkReferences": {},
  "deployedLinkReferences": {}
}